{
  "contractName": "ImageNft",
  "abi": [
    {
      "inputs": [],
      "stateMutability": "nonpayable",
      "type": "constructor"
    },
    {
      "anonymous": false,
      "inputs": [
        {
          "indexed": true,
          "internalType": "address",
          "name": "owner",
          "type": "address"
        },
        {
          "indexed": true,
          "internalType": "address",
          "name": "approved",
          "type": "address"
        },
        {
          "indexed": true,
          "internalType": "uint256",
          "name": "tokenId",
          "type": "uint256"
        }
      ],
      "name": "Approval",
      "type": "event"
    },
    {
      "anonymous": false,
      "inputs": [
        {
          "indexed": true,
          "internalType": "address",
          "name": "owner",
          "type": "address"
        },
        {
          "indexed": true,
          "internalType": "address",
          "name": "operator",
          "type": "address"
        },
        {
          "indexed": false,
          "internalType": "bool",
          "name": "approved",
          "type": "bool"
        }
      ],
      "name": "ApprovalForAll",
      "type": "event"
    },
    {
      "anonymous": false,
      "inputs": [
        {
          "indexed": true,
          "internalType": "address",
          "name": "previousOwner",
          "type": "address"
        },
        {
          "indexed": true,
          "internalType": "address",
          "name": "newOwner",
          "type": "address"
        }
      ],
      "name": "OwnershipTransferred",
      "type": "event"
    },
    {
      "anonymous": false,
      "inputs": [
        {
          "indexed": true,
          "internalType": "address",
          "name": "from",
          "type": "address"
        },
        {
          "indexed": true,
          "internalType": "address",
          "name": "to",
          "type": "address"
        },
        {
          "indexed": true,
          "internalType": "uint256",
          "name": "tokenId",
          "type": "uint256"
        }
      ],
      "name": "Transfer",
      "type": "event"
    },
    {
      "inputs": [
        {
          "internalType": "address",
          "name": "to",
          "type": "address"
        },
        {
          "internalType": "uint256",
          "name": "tokenId",
          "type": "uint256"
        }
      ],
      "name": "approve",
      "outputs": [],
      "stateMutability": "nonpayable",
      "type": "function"
    },
    {
      "inputs": [
        {
          "internalType": "uint256",
          "name": "",
          "type": "uint256"
        }
      ],
      "name": "attributes",
      "outputs": [
        {
          "internalType": "string",
          "name": "url",
          "type": "string"
        },
        {
          "internalType": "uint256",
          "name": "price",
          "type": "uint256"
        },
        {
          "internalType": "bytes32",
          "name": "ImageHash",
          "type": "bytes32"
        },
        {
          "internalType": "address",
          "name": "artistWallet",
          "type": "address"
        },
        {
          "internalType": "address",
          "name": "ownerWallet",
          "type": "address"
        }
      ],
      "stateMutability": "view",
      "type": "function"
    },
    {
      "inputs": [
        {
          "internalType": "address",
          "name": "owner",
          "type": "address"
        }
      ],
      "name": "balanceOf",
      "outputs": [
        {
          "internalType": "uint256",
          "name": "",
          "type": "uint256"
        }
      ],
      "stateMutability": "view",
      "type": "function"
    },
    {
      "inputs": [
        {
          "internalType": "address",
          "name": "",
          "type": "address"
        }
      ],
      "name": "balances",
      "outputs": [
        {
          "internalType": "uint256",
          "name": "",
          "type": "uint256"
        }
      ],
      "stateMutability": "view",
      "type": "function"
    },
    {
      "inputs": [
        {
          "internalType": "uint256",
          "name": "tokenId",
          "type": "uint256"
        }
      ],
      "name": "getApproved",
      "outputs": [
        {
          "internalType": "address",
          "name": "",
          "type": "address"
        }
      ],
      "stateMutability": "view",
      "type": "function"
    },
    {
      "inputs": [
        {
          "internalType": "address",
          "name": "owner",
          "type": "address"
        },
        {
          "internalType": "address",
          "name": "operator",
          "type": "address"
        }
      ],
      "name": "isApprovedForAll",
      "outputs": [
        {
          "internalType": "bool",
          "name": "",
          "type": "bool"
        }
      ],
      "stateMutability": "view",
      "type": "function"
    },
    {
      "inputs": [],
      "name": "name",
      "outputs": [
        {
          "internalType": "string",
          "name": "",
          "type": "string"
        }
      ],
      "stateMutability": "view",
      "type": "function"
    },
    {
      "inputs": [],
      "name": "owner",
      "outputs": [
        {
          "internalType": "address",
          "name": "",
          "type": "address"
        }
      ],
      "stateMutability": "view",
      "type": "function"
    },
    {
      "inputs": [
        {
          "internalType": "uint256",
          "name": "tokenId",
          "type": "uint256"
        }
      ],
      "name": "ownerOf",
      "outputs": [
        {
          "internalType": "address",
          "name": "",
          "type": "address"
        }
      ],
      "stateMutability": "view",
      "type": "function"
    },
    {
      "inputs": [],
      "name": "renounceOwnership",
      "outputs": [],
      "stateMutability": "nonpayable",
      "type": "function"
    },
    {
      "inputs": [
        {
          "internalType": "address",
          "name": "from",
          "type": "address"
        },
        {
          "internalType": "address",
          "name": "to",
          "type": "address"
        },
        {
          "internalType": "uint256",
          "name": "tokenId",
          "type": "uint256"
        }
      ],
      "name": "safeTransferFrom",
      "outputs": [],
      "stateMutability": "nonpayable",
      "type": "function"
    },
    {
      "inputs": [
        {
          "internalType": "address",
          "name": "from",
          "type": "address"
        },
        {
          "internalType": "address",
          "name": "to",
          "type": "address"
        },
        {
          "internalType": "uint256",
          "name": "tokenId",
          "type": "uint256"
        },
        {
          "internalType": "bytes",
          "name": "_data",
          "type": "bytes"
        }
      ],
      "name": "safeTransferFrom",
      "outputs": [],
      "stateMutability": "nonpayable",
      "type": "function"
    },
    {
      "inputs": [
        {
          "internalType": "address",
          "name": "operator",
          "type": "address"
        },
        {
          "internalType": "bool",
          "name": "approved",
          "type": "bool"
        }
      ],
      "name": "setApprovalForAll",
      "outputs": [],
      "stateMutability": "nonpayable",
      "type": "function"
    },
    {
      "inputs": [],
      "name": "symbol",
      "outputs": [
        {
          "internalType": "string",
          "name": "",
          "type": "string"
        }
      ],
      "stateMutability": "view",
      "type": "function"
    },
    {
      "inputs": [
        {
          "internalType": "uint256",
          "name": "index",
          "type": "uint256"
        }
      ],
      "name": "tokenByIndex",
      "outputs": [
        {
          "internalType": "uint256",
          "name": "",
          "type": "uint256"
        }
      ],
      "stateMutability": "view",
      "type": "function"
    },
    {
      "inputs": [
        {
          "internalType": "address",
          "name": "owner",
          "type": "address"
        },
        {
          "internalType": "uint256",
          "name": "index",
          "type": "uint256"
        }
      ],
      "name": "tokenOfOwnerByIndex",
      "outputs": [
        {
          "internalType": "uint256",
          "name": "",
          "type": "uint256"
        }
      ],
      "stateMutability": "view",
      "type": "function"
    },
    {
      "inputs": [],
      "name": "totalSupply",
      "outputs": [
        {
          "internalType": "uint256",
          "name": "",
          "type": "uint256"
        }
      ],
      "stateMutability": "view",
      "type": "function"
    },
    {
      "inputs": [
        {
          "internalType": "address",
          "name": "from",
          "type": "address"
        },
        {
          "internalType": "address",
          "name": "to",
          "type": "address"
        },
        {
          "internalType": "uint256",
          "name": "tokenId",
          "type": "uint256"
        }
      ],
      "name": "transferFrom",
      "outputs": [],
      "stateMutability": "nonpayable",
      "type": "function"
    },
    {
      "inputs": [
        {
          "internalType": "address",
          "name": "newOwner",
          "type": "address"
        }
      ],
      "name": "transferOwnership",
      "outputs": [],
      "stateMutability": "nonpayable",
      "type": "function"
    },
    {
      "inputs": [
        {
          "internalType": "address",
          "name": "receiver",
          "type": "address"
        },
        {
          "internalType": "uint256",
          "name": "amount",
          "type": "uint256"
        },
        {
          "internalType": "uint256",
          "name": "tokenId",
          "type": "uint256"
        }
      ],
      "name": "send",
      "outputs": [],
      "stateMutability": "nonpayable",
      "type": "function"
    },
    {
      "inputs": [
        {
          "internalType": "bytes4",
          "name": "interfaceId",
          "type": "bytes4"
        }
      ],
      "name": "supportsInterface",
      "outputs": [
        {
          "internalType": "bool",
          "name": "",
          "type": "bool"
        }
      ],
      "stateMutability": "view",
      "type": "function"
    },
    {
      "inputs": [
        {
          "internalType": "address",
          "name": "to",
          "type": "address"
        },
        {
          "internalType": "uint256",
          "name": "tokenId",
          "type": "uint256"
        },
        {
          "internalType": "string",
          "name": "url",
          "type": "string"
        },
        {
          "internalType": "uint256",
          "name": "price",
          "type": "uint256"
        },
        {
          "internalType": "address",
          "name": "artistWallet",
          "type": "address"
        },
        {
          "internalType": "address",
          "name": "ownerWallet",
          "type": "address"
        }
      ],
      "name": "mint",
      "outputs": [],
      "stateMutability": "nonpayable",
      "type": "function"
    },
    {
      "inputs": [
        {
          "internalType": "uint256",
          "name": "tokenId",
          "type": "uint256"
        },
        {
          "internalType": "address",
          "name": "myWallet",
          "type": "address"
        }
      ],
      "name": "BuyNFT",
      "outputs": [],
      "stateMutability": "payable",
      "type": "function"
    },
    {
      "inputs": [
        {
          "internalType": "uint256",
          "name": "tokenId",
          "type": "uint256"
        }
      ],
      "name": "getPricebyId",
      "outputs": [
        {
          "internalType": "uint256",
          "name": "",
          "type": "uint256"
        }
      ],
      "stateMutability": "view",
      "type": "function"
    },
    {
      "inputs": [],
      "name": "getAllNft",
      "outputs": [
        {
          "internalType": "uint256",
          "name": "",
          "type": "uint256"
        }
      ],
      "stateMutability": "view",
      "type": "function"
    },
    {
      "inputs": [
        {
          "internalType": "uint256",
          "name": "tokenId",
          "type": "uint256"
        }
      ],
      "name": "tokenURI",
      "outputs": [
        {
          "internalType": "string",
          "name": "",
          "type": "string"
        }
      ],
      "stateMutability": "view",
      "type": "function"
    }
  ],
  "bytecode": "0x60806040526001600d553480156200001657600080fd5b5060405180604001604052806005815260200164496d61676560d81b81525060405180604001604052806005815260200164494d41474560d81b81525081600090805190602001906200006b929190620000fa565b50805162000081906001906020840190620000fa565b5050506200009e62000098620000a460201b60201c565b620000a8565b620001dc565b3390565b600a80546001600160a01b038381166001600160a01b0319831681179093556040519116919082907f8be0079c531659141344cd1fd0a4f28419497f9722a3daafe3b4186f6b6457e090600090a35050565b8280546200010890620001a0565b90600052602060002090601f0160209004810192826200012c576000855562000177565b82601f106200014757805160ff191683800117855562000177565b8280016001018555821562000177579182015b82811115620001775782518255916020019190600101906200015a565b506200018592915062000189565b5090565b5b808211156200018557600081556001016200018a565b600181811c90821680620001b557607f821691505b602082108103620001d657634e487b7160e01b600052602260045260246000fd5b50919050565b6127aa80620001ec6000396000f3fe6080604052600436106101815760003560e01c806367df93f2116100d1578063a22cb4651161008a578063d05dcc6a11610064578063d05dcc6a14610463578063dcc2057f14610494578063e985e9c5146104b4578063f2fde38b146104fd57600080fd5b8063a22cb46514610403578063b88d4fde14610423578063c87b56dd1461044357600080fd5b806367df93f21461034b57806370a082311461036b578063715018a61461038b57806383851bd0146103a05780638da5cb5b146103d057806395d89b41146103ee57600080fd5b806323b872dd1161013e57806342842e0e1161011857806342842e0e146102d65780634f6ccce7146102f65780636352211e1461031657806363ba31cf1461033657600080fd5b806323b872dd1461026957806327e235e3146102895780632f745c59146102b657600080fd5b806301ffc9a71461018657806306fdde03146101bb578063079fc0f0146101dd578063081812fc146101f2578063095ea7b31461022a57806318160ddd1461024a575b600080fd5b34801561019257600080fd5b506101a66101a1366004611d43565b61051d565b60405190151581526020015b60405180910390f35b3480156101c757600080fd5b506101d061052e565b6040516101b29190611dbf565b6101f06101eb366004611de9565b6105c0565b005b3480156101fe57600080fd5b5061021261020d366004611e15565b61060d565b6040516001600160a01b0390911681526020016101b2565b34801561023657600080fd5b506101f0610245366004611e2e565b6106a7565b34801561025657600080fd5b506008545b6040519081526020016101b2565b34801561027557600080fd5b506101f0610284366004611e58565b6107bc565b34801561029557600080fd5b5061025b6102a4366004611e94565b600e6020526000908152604090205481565b3480156102c257600080fd5b5061025b6102d1366004611e2e565b6107ed565b3480156102e257600080fd5b506101f06102f1366004611e58565b610883565b34801561030257600080fd5b5061025b610311366004611e15565b61089e565b34801561032257600080fd5b50610212610331366004611e15565b610931565b34801561034257600080fd5b5061025b6109a8565b34801561035757600080fd5b506101f0610366366004611eaf565b6109de565b34801561037757600080fd5b5061025b610386366004611e94565b610a92565b34801561039757600080fd5b506101f0610b19565b3480156103ac57600080fd5b5061025b6103bb366004611e15565b6000908152600c602052604090206001015490565b3480156103dc57600080fd5b50600a546001600160a01b0316610212565b3480156103fa57600080fd5b506101d0610b4f565b34801561040f57600080fd5b506101f061041e366004611ee2565b610b5e565b34801561042f57600080fd5b506101f061043e366004611faa565b610b6d565b34801561044f57600080fd5b506101d061045e366004611e15565b610ba5565b34801561046f57600080fd5b5061048361047e366004611e15565b610c64565b6040516101b2959493929190612026565b3480156104a057600080fd5b506101f06104af366004612066565b610d28565b3480156104c057600080fd5b506101a66104cf3660046120fb565b6001600160a01b03918216600090815260056020908152604080832093909416825291909152205460ff1690565b34801561050957600080fd5b506101f0610518366004611e94565b610e23565b600061052882610ebe565b92915050565b60606000805461053d90612125565b80601f016020809104026020016040519081016040528092919081815260200182805461056990612125565b80156105b65780601f1061058b576101008083540402835291602001916105b6565b820191906000526020600020905b81548152906001019060200180831161059957829003601f168201915b5050505050905090565b6000828152600c60205260408120600181015460049091015490916001600160a01b03909116906105f983670de0b6b3a764000061216f565b90506106068282876109de565b5050505050565b6000818152600260205260408120546001600160a01b031661068b5760405162461bcd60e51b815260206004820152602c60248201527f4552433732313a20617070726f76656420717565727920666f72206e6f6e657860448201526b34b9ba32b73a103a37b5b2b760a11b60648201526084015b60405180910390fd5b506000908152600460205260409020546001600160a01b031690565b60006106b282610931565b9050806001600160a01b0316836001600160a01b03160361071f5760405162461bcd60e51b815260206004820152602160248201527f4552433732313a20617070726f76616c20746f2063757272656e74206f776e656044820152603960f91b6064820152608401610682565b336001600160a01b038216148061073b575061073b81336104cf565b6107ad5760405162461bcd60e51b815260206004820152603860248201527f4552433732313a20617070726f76652063616c6c6572206973206e6f74206f7760448201527f6e6572206e6f7220617070726f76656420666f7220616c6c00000000000000006064820152608401610682565b6107b78383610ee3565b505050565b6107c63382610f51565b6107e25760405162461bcd60e51b81526004016106829061218e565b6107b7838383611048565b60006107f883610a92565b821061085a5760405162461bcd60e51b815260206004820152602b60248201527f455243373231456e756d657261626c653a206f776e657220696e646578206f7560448201526a74206f6620626f756e647360a81b6064820152608401610682565b506001600160a01b03919091166000908152600660209081526040808320938352929052205490565b6107b783838360405180602001604052806000815250610b6d565b60006108a960085490565b821061090c5760405162461bcd60e51b815260206004820152602c60248201527f455243373231456e756d657261626c653a20676c6f62616c20696e646578206f60448201526b7574206f6620626f756e647360a01b6064820152608401610682565b6008828154811061091f5761091f6121df565b90600052602060002001549050919050565b6000818152600260205260408120546001600160a01b0316806105285760405162461bcd60e51b815260206004820152602960248201527f4552433732313a206f776e657220717565727920666f72206e6f6e657869737460448201526832b73a103a37b5b2b760b91b6064820152608401610682565b60008060005b600d548110156109d857816109c2816121f5565b92505080806109d0906121f5565b9150506109ae565b50919050565b336000908152600e6020526040902054821115610a355760405162461bcd60e51b815260206004820152601560248201527424b739bab33334b1b4b2b73a103130b630b731b29760591b6044820152606401610682565b336000908152600e602052604081208054849290610a5490849061220e565b90915550506001600160a01b0383166000908152600e602052604081208054849290610a81908490612225565b909155506107b790508333836107bc565b60006001600160a01b038216610afd5760405162461bcd60e51b815260206004820152602a60248201527f4552433732313a2062616c616e636520717565727920666f7220746865207a65604482015269726f206164647265737360b01b6064820152608401610682565b506001600160a01b031660009081526003602052604090205490565b600a546001600160a01b03163314610b435760405162461bcd60e51b81526004016106829061223d565b610b4d60006111ef565b565b60606001805461053d90612125565b610b69338383611241565b5050565b610b773383610f51565b610b935760405162461bcd60e51b81526004016106829061218e565b610b9f8484848461130f565b50505050565b6000818152600c60205260408120600181015460609291610c3a91610bc990611342565b6000868152600c602052604090206003810154610bee906001600160a01b031661146e565b6000888152600c6020526040902060040154610c12906001600160a01b031661146e565b604051602001610c26959493929190612327565b6040516020818303038152906040526115b5565b905080604051602001610c4d91906124b1565b604051602081830303815290604052915050919050565b600c60205260009081526040902080548190610c7f90612125565b80601f0160208091040260200160405190810160405280929190818152602001828054610cab90612125565b8015610cf85780601f10610ccd57610100808354040283529160200191610cf8565b820191906000526020600020905b815481529060010190602001808311610cdb57829003601f168201915b505050600184015460028501546003860154600490960154949591949093506001600160a01b0391821692501685565b600a546001600160a01b03163314610d525760405162461bcd60e51b81526004016106829061223d565b600360fc1b610d61878761171a565b6040805160a08101825286815260208082018790528183018490526001600160a01b038087166060840152851660808301526000898152600c8252929092208151805192939192610db59284920190611c94565b50602082015160018201556040820151600282015560608201516003820180546001600160a01b03199081166001600160a01b0393841617909155608090930151600490920180549093169116179055600d8054906000610e15836121f5565b919050555050505050505050565b600a546001600160a01b03163314610e4d5760405162461bcd60e51b81526004016106829061223d565b6001600160a01b038116610eb25760405162461bcd60e51b815260206004820152602660248201527f4f776e61626c653a206e6577206f776e657220697320746865207a65726f206160448201526564647265737360d01b6064820152608401610682565b610ebb816111ef565b50565b60006001600160e01b0319821663780e9d6360e01b1480610528575061052882611734565b600081815260046020526040902080546001600160a01b0319166001600160a01b0384169081179091558190610f1882610931565b6001600160a01b03167f8c5be1e5ebec7d5bd14f71427d1e84f3dd0314c0f7b2291e5b200ac8c7c3b92560405160405180910390a45050565b6000818152600260205260408120546001600160a01b0316610fca5760405162461bcd60e51b815260206004820152602c60248201527f4552433732313a206f70657261746f7220717565727920666f72206e6f6e657860448201526b34b9ba32b73a103a37b5b2b760a11b6064820152608401610682565b6000610fd583610931565b9050806001600160a01b0316846001600160a01b0316148061101c57506001600160a01b0380821660009081526005602090815260408083209388168352929052205460ff165b806110405750836001600160a01b03166110358461060d565b6001600160a01b0316145b949350505050565b826001600160a01b031661105b82610931565b6001600160a01b0316146110bf5760405162461bcd60e51b815260206004820152602560248201527f4552433732313a207472616e736665722066726f6d20696e636f72726563742060448201526437bbb732b960d91b6064820152608401610682565b6001600160a01b0382166111215760405162461bcd60e51b8152602060048201526024808201527f4552433732313a207472616e7366657220746f20746865207a65726f206164646044820152637265737360e01b6064820152608401610682565b61112c838383611784565b611137600082610ee3565b6001600160a01b038316600090815260036020526040812080546001929061116090849061220e565b90915550506001600160a01b038216600090815260036020526040812080546001929061118e908490612225565b909155505060008181526002602052604080822080546001600160a01b0319166001600160a01b0386811691821790925591518493918716917fddf252ad1be2c89b69c2b068fc378daa952ba7f163c4a11628f55a4df523b3ef91a4505050565b600a80546001600160a01b038381166001600160a01b0319831681179093556040519116919082907f8be0079c531659141344cd1fd0a4f28419497f9722a3daafe3b4186f6b6457e090600090a35050565b816001600160a01b0316836001600160a01b0316036112a25760405162461bcd60e51b815260206004820152601960248201527f4552433732313a20617070726f766520746f2063616c6c6572000000000000006044820152606401610682565b6001600160a01b03838116600081815260056020908152604080832094871680845294825291829020805460ff191686151590811790915591519182527f17307eab39ab6107e8899845ad3d59bd9653f200f220920489ca2b5937696c31910160405180910390a3505050565b61131a848484611048565b6113268484848461178f565b610b9f5760405162461bcd60e51b8152600401610682906124cd565b6060816000036113695750506040805180820190915260018152600360fc1b602082015290565b8160005b8115611393578061137d816121f5565b915061138c9050600a83612535565b915061136d565b60008167ffffffffffffffff8111156113ae576113ae611f1e565b6040519080825280601f01601f1916602001820160405280156113d8576020820181803683370190505b509050815b8515611465576113ee60018261220e565b905060006113fd600a88612535565b61140890600a61216f565b611412908861220e565b61141d906030612549565b905060008160f81b90508084848151811061143a5761143a6121df565b60200101906001600160f81b031916908160001a90535061145c600a89612535565b975050506113dd565b50949350505050565b60408051602880825260608281019093526000919060208201818036833701905050905060005b60148110156115ae5760006114ab82601361220e565b6114b690600861216f565b6114c1906002612652565b6114d4906001600160a01b038716612535565b60f81b9050600060108260f81c6114eb919061265e565b60f81b905060008160f81c60106115029190612680565b8360f81c61151091906126a1565b60f81b905061151e82611890565b8561152a86600261216f565b8151811061153a5761153a6121df565b60200101906001600160f81b031916908160001a90535061155a81611890565b8561156686600261216f565b611571906001612225565b81518110611581576115816121df565b60200101906001600160f81b031916908160001a90535050505080806115a6906121f5565b915050611495565b5092915050565b606081516000036115d457505060408051602081019091526000815290565b600060405180606001604052806040815260200161273560409139905060006003845160026116039190612225565b61160d9190612535565b61161890600461216f565b90506000611627826020612225565b67ffffffffffffffff81111561163f5761163f611f1e565b6040519080825280601f01601f191660200182016040528015611669576020820181803683370190505b509050818152600183018586518101602084015b818310156116d5576003830192508251603f8160121c168501518253600182019150603f81600c1c168501518253600182019150603f8160061c168501518253600182019150603f811685015182535060010161167d565b6003895106600181146116ef57600281146117005761170c565b613d3d60f01b60011983015261170c565b603d60f81b6000198301525b509398975050505050505050565b610b698282604051806020016040528060008152506118cb565b60006001600160e01b031982166380ac58cd60e01b148061176557506001600160e01b03198216635b5e139f60e01b145b8061052857506301ffc9a760e01b6001600160e01b0319831614610528565b6107b78383836118fe565b60006001600160a01b0384163b1561188557604051630a85bd0160e11b81526001600160a01b0385169063150b7a02906117d39033908990889088906004016126c4565b6020604051808303816000875af192505050801561180e575060408051601f3d908101601f1916820190925261180b91810190612701565b60015b61186b573d80801561183c576040519150601f19603f3d011682016040523d82523d6000602084013e611841565b606091505b5080516000036118635760405162461bcd60e51b8152600401610682906124cd565b805181602001fd5b6001600160e01b031916630a85bd0160e11b149050611040565b506001949350505050565b6000600a60f883901c10156118b7576118ae60f883901c6030612549565b60f81b92915050565b6118ae60f883901c6057612549565b919050565b6118d583836119b6565b6118e2600084848461178f565b6107b75760405162461bcd60e51b8152600401610682906124cd565b6001600160a01b0383166119595761195481600880546000838152600960205260408120829055600182018355919091527ff3f7a9fe364faab93b216da50a3214154f22a0a2b415b23a84c8169e8b636ee30155565b61197c565b816001600160a01b0316836001600160a01b03161461197c5761197c8382611b04565b6001600160a01b038216611993576107b781611ba1565b826001600160a01b0316826001600160a01b0316146107b7576107b78282611c50565b6001600160a01b038216611a0c5760405162461bcd60e51b815260206004820181905260248201527f4552433732313a206d696e7420746f20746865207a65726f20616464726573736044820152606401610682565b6000818152600260205260409020546001600160a01b031615611a715760405162461bcd60e51b815260206004820152601c60248201527f4552433732313a20746f6b656e20616c7265616479206d696e746564000000006044820152606401610682565b611a7d60008383611784565b6001600160a01b0382166000908152600360205260408120805460019290611aa6908490612225565b909155505060008181526002602052604080822080546001600160a01b0319166001600160a01b03861690811790915590518392907fddf252ad1be2c89b69c2b068fc378daa952ba7f163c4a11628f55a4df523b3ef908290a45050565b60006001611b1184610a92565b611b1b919061220e565b600083815260076020526040902054909150808214611b6e576001600160a01b03841660009081526006602090815260408083208584528252808320548484528184208190558352600790915290208190555b5060009182526007602090815260408084208490556001600160a01b039094168352600681528383209183525290812055565b600854600090611bb39060019061220e565b60008381526009602052604081205460088054939450909284908110611bdb57611bdb6121df565b906000526020600020015490508060088381548110611bfc57611bfc6121df565b6000918252602080832090910192909255828152600990915260408082208490558582528120556008805480611c3457611c3461271e565b6001900381819060005260206000200160009055905550505050565b6000611c5b83610a92565b6001600160a01b039093166000908152600660209081526040808320868452825280832085905593825260079052919091209190915550565b828054611ca090612125565b90600052602060002090601f016020900481019282611cc25760008555611d08565b82601f10611cdb57805160ff1916838001178555611d08565b82800160010185558215611d08579182015b82811115611d08578251825591602001919060010190611ced565b50611d14929150611d18565b5090565b5b80821115611d145760008155600101611d19565b6001600160e01b031981168114610ebb57600080fd5b600060208284031215611d5557600080fd5b8135611d6081611d2d565b9392505050565b60005b83811015611d82578181015183820152602001611d6a565b83811115610b9f5750506000910152565b60008151808452611dab816020860160208601611d67565b601f01601f19169290920160200192915050565b602081526000611d606020830184611d93565b80356001600160a01b03811681146118c657600080fd5b60008060408385031215611dfc57600080fd5b82359150611e0c60208401611dd2565b90509250929050565b600060208284031215611e2757600080fd5b5035919050565b60008060408385031215611e4157600080fd5b611e4a83611dd2565b946020939093013593505050565b600080600060608486031215611e6d57600080fd5b611e7684611dd2565b9250611e8460208501611dd2565b9150604084013590509250925092565b600060208284031215611ea657600080fd5b611d6082611dd2565b600080600060608486031215611ec457600080fd5b611ecd84611dd2565b95602085013595506040909401359392505050565b60008060408385031215611ef557600080fd5b611efe83611dd2565b915060208301358015158114611f1357600080fd5b809150509250929050565b634e487b7160e01b600052604160045260246000fd5b600067ffffffffffffffff80841115611f4f57611f4f611f1e565b604051601f8501601f19908116603f01168101908282118183101715611f7757611f77611f1e565b81604052809350858152868686011115611f9057600080fd5b858560208301376000602087830101525050509392505050565b60008060008060808587031215611fc057600080fd5b611fc985611dd2565b9350611fd760208601611dd2565b925060408501359150606085013567ffffffffffffffff811115611ffa57600080fd5b8501601f8101871361200b57600080fd5b61201a87823560208401611f34565b91505092959194509250565b60a08152600061203960a0830188611d93565b60208301969096525060408101939093526001600160a01b03918216606084015216608090910152919050565b60008060008060008060c0878903121561207f57600080fd5b61208887611dd2565b955060208701359450604087013567ffffffffffffffff8111156120ab57600080fd5b8701601f810189136120bc57600080fd5b6120cb89823560208401611f34565b945050606087013592506120e160808801611dd2565b91506120ef60a08801611dd2565b90509295509295509295565b6000806040838503121561210e57600080fd5b61211783611dd2565b9150611e0c60208401611dd2565b600181811c9082168061213957607f821691505b6020821081036109d857634e487b7160e01b600052602260045260246000fd5b634e487b7160e01b600052601160045260246000fd5b600081600019048311821515161561218957612189612159565b500290565b60208082526031908201527f4552433732313a207472616e736665722063616c6c6572206973206e6f74206f6040820152701ddb995c881b9bdc88185c1c1c9bdd9959607a1b606082015260800190565b634e487b7160e01b600052603260045260246000fd5b60006001820161220757612207612159565b5060010190565b60008282101561222057612220612159565b500390565b6000821982111561223857612238612159565b500190565b6020808252818101527f4f776e61626c653a2063616c6c6572206973206e6f7420746865206f776e6572604082015260600190565b8054600090600181811c908083168061228c57607f831692505b602080841082036122ad57634e487b7160e01b600052602260045260246000fd5b8180156122c157600181146122d2576122ff565b60ff198616895284890196506122ff565b60008881526020902060005b868110156122f75781548b8201529085019083016122de565b505084890196505b50505050505092915050565b6000815161231d818560208601611d67565b9290920192915050565b693d913730b6b2911d101160b11b81526000612346600a830188612272565b61088b60f21b81527f2261747472696275746573223a205b7b2274726169745f74797065223a20225060028201526f03934b1b2911610113b30b63ab2911d160851b602282015286516123a0816032840160208b01611d67565b808201915050611f4b60f21b8060328301527f7b2274726169745f74797065223a202275726c222c202276616c7565223a200060348301526123e56053830188612272565b9081527f7b2274726169745f74797065223a202261727469737457616c6c6574222c202260028201526703b30b63ab2911d160c51b602282015290506124a561249761248a61248461244b61243d602a87018b61230b565b611f4b60f21b815260020190565b7f7b2274726169745f74797065223a20226f776e657257616c6c6574222c202276815266030b63ab2911d160cd1b602082015260270190565b8761230b565b607d60f81b815260010190565b615d7d60f01b815260020190565b98975050505050505050565b600082516124c3818460208701611d67565b9190910192915050565b60208082526032908201527f4552433732313a207472616e7366657220746f206e6f6e20455243373231526560408201527131b2b4bb32b91034b6b83632b6b2b73a32b960711b606082015260800190565b634e487b7160e01b600052601260045260246000fd5b6000826125445761254461251f565b500490565b600060ff821660ff84168060ff0382111561256657612566612159565b019392505050565b600181815b808511156125a957816000190482111561258f5761258f612159565b8085161561259c57918102915b93841c9390800290612573565b509250929050565b6000826125c057506001610528565b816125cd57506000610528565b81600181146125e357600281146125ed57612609565b6001915050610528565b60ff8411156125fe576125fe612159565b50506001821b610528565b5060208310610133831016604e8410600b841016171561262c575081810a610528565b612636838361256e565b806000190482111561264a5761264a612159565b029392505050565b6000611d6083836125b1565b600060ff8316806126715761267161251f565b8060ff84160491505092915050565b600060ff821660ff84168160ff048111821515161561264a5761264a612159565b600060ff821660ff8416808210156126bb576126bb612159565b90039392505050565b6001600160a01b03858116825284166020820152604081018390526080606082018190526000906126f790830184611d93565b9695505050505050565b60006020828403121561271357600080fd5b8151611d6081611d2d565b634e487b7160e01b600052603160045260246000fdfe4142434445464748494a4b4c4d4e4f505152535455565758595a6162636465666768696a6b6c6d6e6f707172737475767778797a303132333435363738392b2fa2646970667358221220ac3a9b84ce9a9b0593df0be243fbbfaa9f61abf56befc8d63c436fe1b54d730464736f6c634300080e0033",
  "immutableReferences": {},
  "source": "// SPDX-License-Identifier: MIT\r\npragma solidity ^0.8.7;\r\n\r\nimport \"@openzeppelin/contracts/token/ERC721/ERC721.sol\";\r\nimport \"@openzeppelin/contracts/token/ERC721/extensions/ERC721Enumerable.sol\";\r\nimport \"@openzeppelin/contracts/access/Ownable.sol\";\r\n \r\n\r\nlibrary Base64 {\r\n    string internal constant TABLE_ENCODE = 'ABCDEFGHIJKLMNOPQRSTUVWXYZabcdefghijklmnopqrstuvwxyz0123456789+/';\r\n    bytes  internal constant TABLE_DECODE = hex\"0000000000000000000000000000000000000000000000000000000000000000\"\r\n                                            hex\"00000000000000000000003e0000003f3435363738393a3b3c3d000000000000\"\r\n                                            hex\"00000102030405060708090a0b0c0d0e0f101112131415161718190000000000\"\r\n                                            hex\"001a1b1c1d1e1f202122232425262728292a2b2c2d2e2f303132330000000000\";\r\n\r\n    function encode(bytes memory data) internal pure returns (string memory) {\r\n        if (data.length == 0) return '';\r\n\r\n        // load the table into memory\r\n        string memory table = TABLE_ENCODE;\r\n\r\n        // multiply by 4/3 rounded up\r\n        uint256 encodedLen = 4 * ((data.length + 2) / 3);\r\n\r\n        // add some extra buffer at the end required for the writing\r\n        string memory result = new string(encodedLen + 32);\r\n\r\n        assembly {\r\n            // set the actual output length\r\n            mstore(result, encodedLen)\r\n\r\n            // prepare the lookup table\r\n            let tablePtr := add(table, 1)\r\n\r\n            // input ptr\r\n            let dataPtr := data\r\n            let endPtr := add(dataPtr, mload(data))\r\n\r\n            // result ptr, jump over length\r\n            let resultPtr := add(result, 32)\r\n\r\n            // run over the input, 3 bytes at a time\r\n            for {} lt(dataPtr, endPtr) {}\r\n            {\r\n                // read 3 bytes\r\n                dataPtr := add(dataPtr, 3)\r\n                let input := mload(dataPtr)\r\n\r\n                // write 4 characters\r\n                mstore8(resultPtr, mload(add(tablePtr, and(shr(18, input), 0x3F))))\r\n                resultPtr := add(resultPtr, 1)\r\n                mstore8(resultPtr, mload(add(tablePtr, and(shr(12, input), 0x3F))))\r\n                resultPtr := add(resultPtr, 1)\r\n                mstore8(resultPtr, mload(add(tablePtr, and(shr( 6, input), 0x3F))))\r\n                resultPtr := add(resultPtr, 1)\r\n                mstore8(resultPtr, mload(add(tablePtr, and(        input,  0x3F))))\r\n                resultPtr := add(resultPtr, 1)\r\n            }\r\n\r\n            // padding with '='\r\n            switch mod(mload(data), 3)\r\n            case 1 { mstore(sub(resultPtr, 2), shl(240, 0x3d3d)) }\r\n            case 2 { mstore(sub(resultPtr, 1), shl(248, 0x3d)) }\r\n        }\r\n\r\n        return result;\r\n    }\r\n\r\n    function decode(string memory _data) internal pure returns (bytes memory) {\r\n        bytes memory data = bytes(_data);\r\n\r\n        if (data.length == 0) return new bytes(0);\r\n        require(data.length % 4 == 0, \"invalid base64 decoder input\");\r\n\r\n        // load the table into memory\r\n        bytes memory table = TABLE_DECODE;\r\n\r\n        // every 4 characters represent 3 bytes\r\n        uint256 decodedLen = (data.length / 4) * 3;\r\n\r\n        // add some extra buffer at the end required for the writing\r\n        bytes memory result = new bytes(decodedLen + 32);\r\n\r\n        assembly {\r\n            // padding with '='\r\n            let lastBytes := mload(add(data, mload(data)))\r\n            if eq(and(lastBytes, 0xFF), 0x3d) {\r\n                decodedLen := sub(decodedLen, 1)\r\n                if eq(and(lastBytes, 0xFFFF), 0x3d3d) {\r\n                    decodedLen := sub(decodedLen, 1)\r\n                }\r\n            }\r\n\r\n            // set the actual output length\r\n            mstore(result, decodedLen)\r\n\r\n            // prepare the lookup table\r\n            let tablePtr := add(table, 1)\r\n\r\n            // input ptr\r\n            let dataPtr := data\r\n            let endPtr := add(dataPtr, mload(data))\r\n\r\n            // result ptr, jump over length\r\n            let resultPtr := add(result, 32)\r\n\r\n            // run over the input, 4 characters at a time\r\n            for {} lt(dataPtr, endPtr) {}\r\n            {\r\n               // read 4 characters\r\n               dataPtr := add(dataPtr, 4)\r\n               let input := mload(dataPtr)\r\n\r\n               // write 3 bytes\r\n               let output := add(\r\n                   add(\r\n                       shl(18, and(mload(add(tablePtr, and(shr(24, input), 0xFF))), 0xFF)),\r\n                       shl(12, and(mload(add(tablePtr, and(shr(16, input), 0xFF))), 0xFF))),\r\n                   add(\r\n                       shl( 6, and(mload(add(tablePtr, and(shr( 8, input), 0xFF))), 0xFF)),\r\n                               and(mload(add(tablePtr, and(        input , 0xFF))), 0xFF)\r\n                    )\r\n                )\r\n                mstore(resultPtr, shl(232, output))\r\n                resultPtr := add(resultPtr, 3)\r\n            }\r\n        }\r\n\r\n        return result;\r\n    }\r\n}\r\ncontract ImageNft is ERC721, ERC721Enumerable, Ownable {\r\n    mapping(string => bool) private takenNames;\r\n    mapping(uint256 => Attr) public attributes;\r\n    uint numberOfAttr=1;\r\n    mapping (address => uint) public balances;\r\n\r\n    struct Attr {\r\n        string url;\r\n        uint  price;\r\n        bytes32  ImageHash;\r\n        address  artistWallet;\r\n        address  ownerWallet;\r\n    }\r\n\r\n    constructor() ERC721(\"Image\", \"IMAGE\") {\r\n        address owner = msg.sender;\r\n    }\r\n\r\n    function send(address receiver, uint amount,uint256 tokenId) public {\r\n        require(amount <= balances[msg.sender], \"Insufficient balance.\");\r\n        balances[msg.sender] -= amount;\r\n        balances[receiver] += amount;\r\n        transferFrom(receiver,msg.sender,tokenId);\r\n    }\r\n\r\n    function uint2str(uint _i) internal pure returns (string memory _uintAsString) {\r\n        if (_i == 0) {\r\n            return \"0\";\r\n        }\r\n        uint j = _i;\r\n        uint len;\r\n        while (j != 0) {\r\n            len++;\r\n            j /= 10;\r\n        }\r\n        bytes memory bstr = new bytes(len);\r\n        uint k = len;\r\n        while (_i != 0) {\r\n            k = k-1;\r\n            uint8 temp = (48 + uint8(_i - _i / 10 * 10));\r\n            bytes1 b1 = bytes1(temp);\r\n            bstr[k] = b1;\r\n            _i /= 10;\r\n        }\r\n        return string(bstr);\r\n    }\r\n\r\n    function _beforeTokenTransfer(address from, address to, uint256 tokenId)\r\n        internal\r\n        override(ERC721, ERC721Enumerable)\r\n    {\r\n        super._beforeTokenTransfer(from, to, tokenId);\r\n    }\r\n\r\n    function _burn(uint256 tokenId) internal override(ERC721) {\r\n        super._burn(tokenId);\r\n    }\r\n\r\n    function supportsInterface(bytes4 interfaceId)\r\n        public\r\n        view\r\n        override(ERC721, ERC721Enumerable)\r\n        returns (bool)\r\n    {\r\n        return super.supportsInterface(interfaceId);\r\n    }\r\n\r\n    function mint(\r\n        address to, \r\n        uint256 tokenId, //doit etre le id de l'image\r\n        string memory url, \r\n        uint price,\r\n        address  artistWallet,\r\n        address  ownerWallet) \r\n\r\n    public onlyOwner {\r\n        bytes32 imageBytes='0';\r\n        _safeMint(to, tokenId);\r\n        attributes[tokenId] = Attr(url, price, imageBytes, artistWallet, ownerWallet); \r\n        numberOfAttr++;\r\n    }\r\n\r\nfunction BuyNFT(uint256 tokenId,address myWallet) public payable {\r\n            uint price =getPricebyId(tokenId);\r\n            address walletOwner=getOwnerWallet(tokenId);\r\n            uint exactAmount = uint(price*1000000000000000000);\r\n            send(walletOwner,exactAmount,tokenId);\r\n            }   \r\n    \r\n    function getPricebyId(uint tokenId) public view returns (uint){\r\n        return attributes[tokenId].price;\r\n    }\r\n    function getOwnerWallet(uint tokenId) private view returns (address){\r\n        return attributes[tokenId].ownerWallet;\r\n    }\r\n    function getAllNft() public view returns (uint){\r\n        uint answer;\r\n        for(uint i;i<numberOfAttr;i++){\r\n            answer++;\r\n        }\r\n        return answer;\r\n    }\r\n\r\n\r\n    function tokenURI(uint256 tokenId) override(ERC721) public view returns (string memory) {\r\n        string memory encodedjson = Base64.encode(\r\n            bytes(string(\r\n                abi.encodePacked(\r\n                   '{\"name\": \"', attributes[tokenId].url, '\",',\r\n                    '\"attributes\": [{\"trait_type\": \"Price\", \"value\": ', uint2str(attributes[tokenId].price), '},',\r\n                    '{\"trait_type\": \"url\", \"value\": ', attributes[tokenId].url, '},',\r\n                    '{\"trait_type\": \"artistWallet\", \"value\": ', toAsciiString(attributes[tokenId].artistWallet), '},',\r\n                    '{\"trait_type\": \"ownerWallet\", \"value\": ', toAsciiString(attributes[tokenId].ownerWallet), '}',\r\n                    ']}'\r\n                )\r\n            ))\r\n        );\r\n        return string(abi.encodePacked(encodedjson));\r\n    }\r\n    function toAsciiString(address x) internal pure returns (string memory) {\r\n    bytes memory s = new bytes(40);\r\n    for (uint i = 0; i < 20; i++) {\r\n        bytes1 b = bytes1(uint8(uint(uint160(x)) / (2**(8*(19 - i)))));\r\n        bytes1 hi = bytes1(uint8(b) / 16);\r\n        bytes1 lo = bytes1(uint8(b) - 16 * uint8(hi));\r\n        s[2*i] = char(hi);\r\n        s[2*i+1] = char(lo);            \r\n    }\r\n    return string(s);\r\n    }\r\n\r\n    function char(bytes1 b) internal pure returns (bytes1 c) {\r\n    if (uint8(b) < 10) return bytes1(uint8(b) + 0x30);\r\n    else return bytes1(uint8(b) + 0x57);\r\n    }\r\n}",
  "sourcePath": "D:\\NFT_Tuto\\eth-todo-list-server\\contracts\\NFT.sol",
  "compiler": {
    "name": "solc",
    "version": "0.8.14+commit.80d49f37.Emscripten.clang"
  },
  "schemaVersion": "3.4.7",
  "updatedAt": "2022-05-31T13:32:51.071Z",
  "devdoc": {
    "kind": "dev",
    "methods": {
      "approve(address,uint256)": {
        "details": "See {IERC721-approve}."
      },
      "balanceOf(address)": {
        "details": "See {IERC721-balanceOf}."
      },
      "getApproved(uint256)": {
        "details": "See {IERC721-getApproved}."
      },
      "isApprovedForAll(address,address)": {
        "details": "See {IERC721-isApprovedForAll}."
      },
      "name()": {
        "details": "See {IERC721Metadata-name}."
      },
      "owner()": {
        "details": "Returns the address of the current owner."
      },
      "ownerOf(uint256)": {
        "details": "See {IERC721-ownerOf}."
      },
      "renounceOwnership()": {
        "details": "Leaves the contract without owner. It will not be possible to call `onlyOwner` functions anymore. Can only be called by the current owner. NOTE: Renouncing ownership will leave the contract without an owner, thereby removing any functionality that is only available to the owner."
      },
      "safeTransferFrom(address,address,uint256)": {
        "details": "See {IERC721-safeTransferFrom}."
      },
      "safeTransferFrom(address,address,uint256,bytes)": {
        "details": "See {IERC721-safeTransferFrom}."
      },
      "setApprovalForAll(address,bool)": {
        "details": "See {IERC721-setApprovalForAll}."
      },
      "symbol()": {
        "details": "See {IERC721Metadata-symbol}."
      },
      "tokenByIndex(uint256)": {
        "details": "See {IERC721Enumerable-tokenByIndex}."
      },
      "tokenOfOwnerByIndex(address,uint256)": {
        "details": "See {IERC721Enumerable-tokenOfOwnerByIndex}."
      },
      "tokenURI(uint256)": {
        "details": "See {IERC721Metadata-tokenURI}."
      },
      "totalSupply()": {
        "details": "See {IERC721Enumerable-totalSupply}."
      },
      "transferFrom(address,address,uint256)": {
        "details": "See {IERC721-transferFrom}."
      },
      "transferOwnership(address)": {
        "details": "Transfers ownership of the contract to a new account (`newOwner`). Can only be called by the current owner."
      }
    },
    "version": 1
  },
  "userdoc": {
    "kind": "user",
    "methods": {},
    "version": 1
  }
}